:040000008A11F02F42
:100DC80001340134F001F1017130831603138F00EF
:100DD800043085000430910028309F008930831248
:100DE80003139F0007309900080083120313A4011E
:100DF800A501A601A701A8018A11E6268A118A1170
:100E080010278A11710883120313B0007008AF000D
:100E18008A1131278A11032F222F9F141F2F9F1801
:100E28001F2F1E08AA00831603131E08831203131C
:100E3800A900AD012C2FAD01AD0A2C2F831203138D
:100E48002D08003A0319112F013A0319132F2C2FDB
:100E58002A08F1002908F00008006A2F1F308316BD
:100E68000313870083120313071A3D2FB201B20A36
:100E780008003103031D452F0230FD007D08B20034
:100E880008000330FD007D08B2000800071A502F43
:100E9800B101B201B20A08000708FD007D08AE00E2
:100EA8002E080F39FD007D08AE000230FD007D08D8
:100EB800B20008002E088A117827FD007D088312E9
:100EC8000313B2000800B201B20A08008312031328
:100ED8003208013A0319322F033A03194A2F013A0B
:100EE80003195E2F672F0800F500FC01E32F8A1114
:100EF800E6268A1110308316031387000330F200A8
:100F08007208FB0083120313071EDE2F0E308700C2
:100F1800EE2F1030831603138700831203132F0854
:100F28000F39F2007208F6003008F3002F08F200BB
:100F380004300310F30CF20CFF3E031D9D2F7208C2
:100F48000F39F4007408F70030080339F20072080A
:100F5800F8000E30F2007208F9007C08763E840032
:100F680000080F39870004307C020318DD2F071EA4
:100F7800C02FFA01FA0ACF2F7A030319071ACF2FC5
:100F88000130F2007208FC077C08763E84000008F5
:100F98000F398700FA010130AB070318AC0A00309B
:100FA800AC072B0A031DB72F2C0A031DB72FAB0163
:100FB800AC01FC01FB01FB0AB101B10AEE2F750877
:100FC800003A03197B2F013A03197E2F033A0319BC
:100FD8008D2FEE2F7B080800A901AA01AB01AC01F7
:100FE800AD01AE018A11E4268A11B1008A11E52605
:080FF800B20083018A11F92EF9
:02400E00D4FFDD
:00000001FF
